{"abi":[{"type":"constructor","inputs":[{"name":"_verifier","type":"address","internalType":"address"}],"stateMutability":"nonpayable"},{"type":"function","name":"getVerifiedX509Journal","inputs":[{"name":"certChain","type":"bytes[]","internalType":"bytes[]"}],"outputs":[{"name":"journal","type":"tuple","internalType":"struct X509VerifierDemo.Journal","components":[{"name":"chainHash","type":"bytes32","internalType":"bytes32"},{"name":"rootHash","type":"bytes32","internalType":"bytes32"}]}],"stateMutability":"view"},{"type":"function","name":"owner","inputs":[],"outputs":[{"name":"","type":"address","internalType":"address"}],"stateMutability":"view"},{"type":"function","name":"renounceOwnership","inputs":[],"outputs":[],"stateMutability":"nonpayable"},{"type":"function","name":"setVerifier","inputs":[{"name":"_verifier","type":"address","internalType":"address"}],"outputs":[],"stateMutability":"nonpayable"},{"type":"function","name":"transferOwnership","inputs":[{"name":"newOwner","type":"address","internalType":"address"}],"outputs":[],"stateMutability":"nonpayable"},{"type":"function","name":"verifier","inputs":[],"outputs":[{"name":"","type":"address","internalType":"contract X509ChainVerifier"}],"stateMutability":"view"},{"type":"function","name":"verifyX509ChainProof","inputs":[{"name":"derX509Chain","type":"bytes[]","internalType":"bytes[]"},{"name":"seal","type":"bytes","internalType":"bytes"}],"outputs":[],"stateMutability":"nonpayable"},{"type":"event","name":"OwnershipTransferred","inputs":[{"name":"previousOwner","type":"address","indexed":true,"internalType":"address"},{"name":"newOwner","type":"address","indexed":true,"internalType":"address"}],"anonymous":false},{"type":"error","name":"OwnableInvalidOwner","inputs":[{"name":"owner","type":"address","internalType":"address"}]},{"type":"error","name":"OwnableUnauthorizedAccount","inputs":[{"name":"account","type":"address","internalType":"address"}]}],"bytecode":{"object":"0x608060405234801561001057600080fd5b506040516108fc3803806108fc83398101604081905261002f916100d0565b338061005557604051631e4fbdf760e01b81526000600482015260240160405180910390fd5b61005e81610080565b50600180546001600160a01b0319166001600160a01b03831617905550610100565b600080546001600160a01b038381166001600160a01b0319831681178455604051919092169283917f8be0079c531659141344cd1fd0a4f28419497f9722a3daafe3b4186f6b6457e09190a35050565b6000602082840312156100e257600080fd5b81516001600160a01b03811681146100f957600080fd5b9392505050565b6107ed8061010f6000396000f3fe608060405234801561001057600080fd5b506004361061007d5760003560e01c806374006dae1161005b57806374006dae146100cf578063752fe9fc146100fd5780638da5cb5b14610110578063f2fde38b1461012157600080fd5b80632b7ac3f3146100825780635437988d146100b2578063715018a6146100c7575b600080fd5b600154610095906001600160a01b031681565b6040516001600160a01b0390911681526020015b60405180910390f35b6100c56100c0366004610478565b610134565b005b6100c561015d565b6100e26100dd3660046104f4565b610171565b604080518251815260209283015192810192909252016100a9565b6100c561010b366004610536565b61022d565b6000546001600160a01b0316610095565b6100c561012f366004610478565b6103bb565b61013c6103fb565b600180546001600160a01b0319166001600160a01b03831617905550565b50565b6101656103fb565b61016f6000610428565b565b6040805180820190915260008082526020820152600260006002858560405160200161019e92919061068d565b60408051601f19818403018152908290526101b8916106a9565b602060405180830381855afa1580156101d5573d6000803e3d6000fd5b5050506040513d601f19601f820116820180604052508101906101f891906106d8565b815260200190815260200160002060405180604001604052908160008201548152602001600182015481525050905092915050565b600154604051631d4bfa7f60e21b81526001600160a01b039091169063752fe9fc906102639087908790879087906004016106f1565b60006040518083038186803b15801561027b57600080fd5b505afa15801561028f573d6000803e3d6000fd5b5050505060006040518060400160405280600287876040516020016102b592919061068d565b60408051601f19818403018152908290526102cf916106a9565b602060405180830381855afa1580156102ec573d6000803e3d6000fd5b5050506040513d601f19601f8201168201806040525081019061030f91906106d8565b815260200160028787610323600182610723565b8181106103325761033261074a565b90506020028101906103449190610760565b6040516103529291906107a7565b602060405180830381855afa15801561036f573d6000803e3d6000fd5b5050506040513d601f19601f8201168201806040525081019061039291906106d8565b905280516000908152600260209081526040909120825181559101516001909101555050505050565b6103c36103fb565b6001600160a01b0381166103f257604051631e4fbdf760e01b8152600060048201526024015b60405180910390fd5b61015a81610428565b6000546001600160a01b0316331461016f5760405163118cdaa760e01b81523360048201526024016103e9565b600080546001600160a01b038381166001600160a01b0319831681178455604051919092169283917f8be0079c531659141344cd1fd0a4f28419497f9722a3daafe3b4186f6b6457e09190a35050565b60006020828403121561048a57600080fd5b81356001600160a01b03811681146104a157600080fd5b9392505050565b60008083601f8401126104ba57600080fd5b50813567ffffffffffffffff8111156104d257600080fd5b6020830191508360208260051b85010111156104ed57600080fd5b9250929050565b6000806020838503121561050757600080fd5b823567ffffffffffffffff81111561051e57600080fd5b61052a858286016104a8565b90969095509350505050565b6000806000806040858703121561054c57600080fd5b843567ffffffffffffffff8082111561056457600080fd5b610570888389016104a8565b9096509450602087013591508082111561058957600080fd5b818701915087601f83011261059d57600080fd5b8135818111156105ac57600080fd5b8860208285010111156105be57600080fd5b95989497505060200194505050565b81835281816020850137506000828201602090810191909152601f909101601f19169091010190565b6000838385526020808601955060208560051b8301018460005b8781101561068057848303601f19018952813536889003601e1901811261063657600080fd5b8701848101903567ffffffffffffffff81111561065257600080fd5b80360382131561066157600080fd5b61066c8582846105cd565b9a86019a9450505090830190600101610610565b5090979650505050505050565b6020815260006106a16020830184866105f6565b949350505050565b6000825160005b818110156106ca57602081860181015185830152016106b0565b506000920191825250919050565b6000602082840312156106ea57600080fd5b5051919050565b6040815260006107056040830186886105f6565b82810360208401526107188185876105cd565b979650505050505050565b8181038181111561074457634e487b7160e01b600052601160045260246000fd5b92915050565b634e487b7160e01b600052603260045260246000fd5b6000808335601e1984360301811261077757600080fd5b83018035915067ffffffffffffffff82111561079257600080fd5b6020019150368190038213156104ed57600080fd5b818382376000910190815291905056fea264697066735822122069985c0ff5ad70b9cb7e573f293df4c45d60c8dcd0cf14ec30214df0474be6e164736f6c63430008180033","linkReferences":{}},"methodIdentifiers":{"getVerifiedX509Journal(bytes[])":"74006dae","owner()":"8da5cb5b","renounceOwnership()":"715018a6","setVerifier(address)":"5437988d","transferOwnership(address)":"f2fde38b","verifier()":"2b7ac3f3","verifyX509ChainProof(bytes[],bytes)":"752fe9fc"},"id":2}